{
  "contractName": "BlindVoting",
  "abi": [
    {
      "constant": true,
      "inputs": [],
      "name": "to",
      "outputs": [
        {
          "name": "",
          "type": "int256"
        }
      ],
      "payable": false,
      "stateMutability": "view",
      "type": "function"
    },
    {
      "constant": true,
      "inputs": [],
      "name": "version",
      "outputs": [
        {
          "name": "",
          "type": "string"
        }
      ],
      "payable": false,
      "stateMutability": "view",
      "type": "function"
    },
    {
      "constant": true,
      "inputs": [],
      "name": "owner",
      "outputs": [
        {
          "name": "",
          "type": "address"
        }
      ],
      "payable": false,
      "stateMutability": "view",
      "type": "function"
    },
    {
      "constant": true,
      "inputs": [],
      "name": "votingState",
      "outputs": [
        {
          "name": "",
          "type": "uint8"
        }
      ],
      "payable": false,
      "stateMutability": "view",
      "type": "function"
    },
    {
      "constant": true,
      "inputs": [],
      "name": "from",
      "outputs": [
        {
          "name": "",
          "type": "int256"
        }
      ],
      "payable": false,
      "stateMutability": "view",
      "type": "function"
    },
    {
      "constant": true,
      "inputs": [
        {
          "name": "",
          "type": "address"
        }
      ],
      "name": "blindVotes",
      "outputs": [
        {
          "name": "",
          "type": "string"
        }
      ],
      "payable": false,
      "stateMutability": "view",
      "type": "function"
    },
    {
      "inputs": [
        {
          "name": "_from",
          "type": "int256"
        },
        {
          "name": "_to",
          "type": "int256"
        }
      ],
      "payable": false,
      "stateMutability": "nonpayable",
      "type": "constructor"
    },
    {
      "anonymous": false,
      "inputs": [],
      "name": "VotingStarted",
      "type": "event"
    },
    {
      "anonymous": false,
      "inputs": [],
      "name": "CountingStarted",
      "type": "event"
    },
    {
      "anonymous": false,
      "inputs": [
        {
          "indexed": false,
          "name": "result",
          "type": "int256"
        }
      ],
      "name": "VotingClosed",
      "type": "event"
    },
    {
      "constant": false,
      "inputs": [],
      "name": "startVotingRound",
      "outputs": [],
      "payable": false,
      "stateMutability": "nonpayable",
      "type": "function"
    },
    {
      "constant": false,
      "inputs": [],
      "name": "startCountingRound",
      "outputs": [],
      "payable": false,
      "stateMutability": "nonpayable",
      "type": "function"
    },
    {
      "constant": false,
      "inputs": [],
      "name": "finishVoting",
      "outputs": [],
      "payable": false,
      "stateMutability": "nonpayable",
      "type": "function"
    },
    {
      "constant": false,
      "inputs": [
        {
          "name": "blindVote",
          "type": "string"
        }
      ],
      "name": "vote",
      "outputs": [],
      "payable": false,
      "stateMutability": "nonpayable",
      "type": "function"
    },
    {
      "constant": false,
      "inputs": [
        {
          "name": "vote",
          "type": "int256"
        },
        {
          "name": "salt",
          "type": "string"
        }
      ],
      "name": "revealVote",
      "outputs": [],
      "payable": false,
      "stateMutability": "nonpayable",
      "type": "function"
    },
    {
      "constant": true,
      "inputs": [
        {
          "name": "a",
          "type": "string"
        },
        {
          "name": "b",
          "type": "string"
        }
      ],
      "name": "compareStrings",
      "outputs": [
        {
          "name": "",
          "type": "bool"
        }
      ],
      "payable": false,
      "stateMutability": "view",
      "type": "function"
    },
    {
      "constant": false,
      "inputs": [
        {
          "name": "source",
          "type": "string"
        }
      ],
      "name": "stringToBytes32",
      "outputs": [
        {
          "name": "result",
          "type": "bytes32"
        }
      ],
      "payable": false,
      "stateMutability": "nonpayable",
      "type": "function"
    }
  ],
  "bytecode": "0x60806040526040805190810160405280600581526020017f302e302e31000000000000000000000000000000000000000000000000000000815250600190805190602001906200005192919062000108565b503480156200005f57600080fd5b50604051604080620017048339810180604052810190808051906020019092919080519060200190929190505050816002819055508060038190555033600460006101000a81548173ffffffffffffffffffffffffffffffffffffffff021916908373ffffffffffffffffffffffffffffffffffffffff16021790555060008060006101000a81548160ff02191690836003811115620000fb57fe5b02179055505050620001b7565b828054600181600116156101000203166002900490600052602060002090601f016020900481019282601f106200014b57805160ff19168380011785556200017c565b828001600101855582156200017c579182015b828111156200017b5782518255916020019190600101906200015e565b5b5090506200018b91906200018f565b5090565b620001b491905b80821115620001b057600081600090555060010162000196565b5090565b90565b61153d80620001c76000396000f3006080604052600436106100c5576000357c0100000000000000000000000000000000000000000000000000000000900463ffffffff16806309800866146100ca578063131519811461013d57806343fba5241461016857806354fd4d501461017f5780638da5cb5b1461020f578063b62312bf14610266578063bed34bba1461029f578063cfb5192814610366578063d5ce3389146103eb578063dd7acd0614610416578063ee45219b146104d2578063f9094303146104e9578063fc36e15b14610500575b600080fd5b3480156100d657600080fd5b5061013b60048036038101908080359060200190929190803590602001908201803590602001908080601f0160208091040260200160405190810160405280939291908181526020018383808284378201915050505050509192919290505050610569565b005b34801561014957600080fd5b50610152610782565b6040518082815260200191505060405180910390f35b34801561017457600080fd5b5061017d610788565b005b34801561018b57600080fd5b50610194610868565b6040518080602001828103825283818151815260200191508051906020019080838360005b838110156101d45780820151818401526020810190506101b9565b50505050905090810190601f1680156102015780820380516001836020036101000a031916815260200191505b509250505060405180910390f35b34801561021b57600080fd5b50610224610906565b604051808273ffffffffffffffffffffffffffffffffffffffff1673ffffffffffffffffffffffffffffffffffffffff16815260200191505060405180910390f35b34801561027257600080fd5b5061027b61092c565b6040518082600381111561028b57fe5b60ff16815260200191505060405180910390f35b3480156102ab57600080fd5b5061034c600480360381019080803590602001908201803590602001908080601f0160208091040260200160405190810160405280939291908181526020018383808284378201915050505050509192919290803590602001908201803590602001908080601f016020809104026020016040519081016040528093929190818152602001838380828437820191505050505050919291929050505061093e565b604051808215151515815260200191505060405180910390f35b34801561037257600080fd5b506103cd600480360381019080803590602001908201803590602001908080601f0160208091040260200160405190810160405280939291908181526020018383808284378201915050505050509192919290505050610a1f565b60405180826000191660001916815260200191505060405180910390f35b3480156103f757600080fd5b50610400610a4a565b6040518082815260200191505060405180910390f35b34801561042257600080fd5b50610457600480360381019080803573ffffffffffffffffffffffffffffffffffffffff169060200190929190505050610a50565b6040518080602001828103825283818151815260200191508051906020019080838360005b8381101561049757808201518184015260208101905061047c565b50505050905090810190601f1680156104c45780820380516001836020036101000a031916815260200191505b509250505060405180910390f35b3480156104de57600080fd5b506104e7610b00565b005b3480156104f557600080fd5b506104fe610be0565b005b34801561050c57600080fd5b50610567600480360381019080803590602001908201803590602001908080601f0160208091040260200160405190810160405280939291908181526020018383808284378201915050505050509192919290505050610d6c565b005b60008060006002600381111561057b57fe5b6000809054906101000a900460ff16600381111561059557fe5b1415156105a157600080fd5b600660003373ffffffffffffffffffffffffffffffffffffffff1673ffffffffffffffffffffffffffffffffffffffff168152602001908152602001600020925060026105f66105f087610eb9565b86611010565b6040518082805190602001908083835b60208310151561062b5780518252602082019150602081019050602083039250610606565b6001836020036101000a0380198251168184511680821785525050505050509050019150506020604051808303816000865af115801561066f573d6000803e3d6000fd5b5050506040513d602081101561068457600080fd5b81019080805190602001909291905050509150610739838054600181600116156101000203166002900480601f01602080910402602001604051908101604052809291908181526020018280546001816001161561010002031660029004801561072f5780601f106107045761010080835404028352916020019161072f565b820191906000526020600020905b81548152906001019060200180831161071257829003601f168201915b5050505050610a1f565b90508160001916816000191614151561077b57600160076000878152602001908152602001600020540160076000878152602001908152602001600020819055505b5050505050565b60035481565b6000600381111561079557fe5b6000809054906101000a900460ff1660038111156107af57fe5b1415156107bb57600080fd5b600460009054906101000a900473ffffffffffffffffffffffffffffffffffffffff1673ffffffffffffffffffffffffffffffffffffffff163373ffffffffffffffffffffffffffffffffffffffff1614151561081757600080fd5b60016000806101000a81548160ff0219169083600381111561083557fe5b02179055507f877e2548498f42b7975a186b94ef1d32c86d420b7b806dd2be2bea293b89590460405160405180910390a1565b60018054600181600116156101000203166002900480601f0160208091040260200160405190810160405280929190818152602001828054600181600116156101000203166002900480156108fe5780601f106108d3576101008083540402835291602001916108fe565b820191906000526020600020905b8154815290600101906020018083116108e157829003601f168201915b505050505081565b600460009054906101000a900473ffffffffffffffffffffffffffffffffffffffff1681565b6000809054906101000a900460ff1681565b600080600080600061094f87610a1f565b935061095a86610a1f565b925083600160208110151561096b57fe5b1a7f0100000000000000000000000000000000000000000000000000000000000000027effffffffffffffffffffffffffffffffffffffffffffffffffffffffffffff191691508260016020811015156109c157fe5b1a7f0100000000000000000000000000000000000000000000000000000000000000027effffffffffffffffffffffffffffffffffffffffffffffffffffffffffffff19169050806000191682600019161494505050505092915050565b60006060829050600081511415610a3c5760006001029150610a44565b602083015191505b50919050565b60025481565b60066020528060005260406000206000915090508054600181600116156101000203166002900480601f016020809104026020016040519081016040528092919081815260200182805460018160011615610100020316600290048015610af85780601f10610acd57610100808354040283529160200191610af8565b820191906000526020600020905b815481529060010190602001808311610adb57829003601f168201915b505050505081565b60016003811115610b0d57fe5b6000809054906101000a900460ff166003811115610b2757fe5b141515610b3357600080fd5b600460009054906101000a900473ffffffffffffffffffffffffffffffffffffffff1673ffffffffffffffffffffffffffffffffffffffff163373ffffffffffffffffffffffffffffffffffffffff16141515610b8f57600080fd5b60026000806101000a81548160ff02191690836003811115610bad57fe5b02179055507f9ecf7ad6cf444ad1f50e63c33bd39a16daf393c1f484880d990058ee77f3aefd60405160405180910390a1565b600080600060026003811115610bf257fe5b6000809054906101000a900460ff166003811115610c0c57fe5b141515610c1857600080fd5b600460009054906101000a900473ffffffffffffffffffffffffffffffffffffffff1673ffffffffffffffffffffffffffffffffffffffff163373ffffffffffffffffffffffffffffffffffffffff16141515610c7457600080fd5b7fffffffffffffffffffffffffffffffffffffffffffffffffffffffffffffffff92507fffffffffffffffffffffffffffffffffffffffffffffffffffffffffffffffff915060025490505b60035481131515610d0d578160076000838152602001908152602001600020541315610d0057600760008281526020019081526020016000205491508092505b8080600101915050610cc0565b60036000806101000a81548160ff02191690836003811115610d2b57fe5b02179055507f8992f5bbaf7885501dd405153dd3f6a4a03711227b286f2e48e2b6076009c9ee836040518082815260200191505060405180910390a1505050565b60016003811115610d7957fe5b6000809054906101000a900460ff166003811115610d9357fe5b141515610d9f57600080fd5b6000600660003373ffffffffffffffffffffffffffffffffffffffff1673ffffffffffffffffffffffffffffffffffffffff1681526020019081526020016000208054600181600116156101000203166002900490501415610eb65780600660003373ffffffffffffffffffffffffffffffffffffffff1673ffffffffffffffffffffffffffffffffffffffff1681526020019081526020016000209080519060200190610e4e92919061146c565b5060053390806001815401808255809150509060018203906000526020600020016000909192909190916101000a81548173ffffffffffffffffffffffffffffffffffffffff021916908373ffffffffffffffffffffffffffffffffffffffff160217905550505b50565b60606000806060600080861415610f07576040805190810160405280600181526020017f30000000000000000000000000000000000000000000000000000000000000008152509450611007565b8593505b600084141515610f31578280600101935050600a84811515610f2957fe5b049350610f0b565b826040519080825280601f01601f191660200182016040528015610f645781602001602082028038833980820191505090505b5091506001830390505b60008614151561100357600a86811515610f8457fe5b066030017f010000000000000000000000000000000000000000000000000000000000000002828280600190039350815181101515610fbf57fe5b9060200101907effffffffffffffffffffffffffffffffffffffffffffffffffffffffffffff1916908160001a905350600a86811515610ffb57fe5b049550610f6e565b8194505b50505050919050565b606061104f8383602060405190810160405280600081525060206040519081016040528060008152506020604051908101604052806000815250611057565b905092915050565b6060806060806060806060806000808e98508d97508c96508b95508a94508451865188518a518c51010101016040519080825280601f01601f1916602001820160405280156110b55781602001602082028038833980820191505090505b50935083925060009150600090505b88518110156111775788818151811015156110db57fe5b9060200101517f010000000000000000000000000000000000000000000000000000000000000090047f010000000000000000000000000000000000000000000000000000000000000002838380600101945081518110151561113a57fe5b9060200101907effffffffffffffffffffffffffffffffffffffffffffffffffffffffffffff1916908160001a90535080806001019150506110c4565b600090505b875181101561122f57878181518110151561119357fe5b9060200101517f010000000000000000000000000000000000000000000000000000000000000090047f01000000000000000000000000000000000000000000000000000000000000000283838060010194508151811015156111f257fe5b9060200101907effffffffffffffffffffffffffffffffffffffffffffffffffffffffffffff1916908160001a905350808060010191505061117c565b600090505b86518110156112e757868181518110151561124b57fe5b9060200101517f010000000000000000000000000000000000000000000000000000000000000090047f01000000000000000000000000000000000000000000000000000000000000000283838060010194508151811015156112aa57fe5b9060200101907effffffffffffffffffffffffffffffffffffffffffffffffffffffffffffff1916908160001a9053508080600101915050611234565b600090505b855181101561139f57858181518110151561130357fe5b9060200101517f010000000000000000000000000000000000000000000000000000000000000090047f010000000000000000000000000000000000000000000000000000000000000002838380600101945081518110151561136257fe5b9060200101907effffffffffffffffffffffffffffffffffffffffffffffffffffffffffffff1916908160001a90535080806001019150506112ec565b600090505b84518110156114575784818151811015156113bb57fe5b9060200101517f010000000000000000000000000000000000000000000000000000000000000090047f010000000000000000000000000000000000000000000000000000000000000002838380600101945081518110151561141a57fe5b9060200101907effffffffffffffffffffffffffffffffffffffffffffffffffffffffffffff1916908160001a90535080806001019150506113a4565b82995050505050505050505095945050505050565b828054600181600116156101000203166002900490600052602060002090601f016020900481019282601f106114ad57805160ff19168380011785556114db565b828001600101855582156114db579182015b828111156114da5782518255916020019190600101906114bf565b5b5090506114e891906114ec565b5090565b61150e91905b8082111561150a5760008160009055506001016114f2565b5090565b905600a165627a7a7230582019251c2a55943bb8e46cef18647192f5c5017f868781a4e1635178aad4d670860029",
  "source": "pragma solidity ^0.4.23;\n\ncontract BlindVoting {\n \n  enum VotingStates {Init, Voting, Counting, Closed }\n  VotingStates public votingState;\n  string public version = \"0.0.1\";\n  int public from;\n  int public to;\n  address public owner;\n  \n  address[] participants;\n  mapping(address => string) public blindVotes;\n  mapping(int => int) votes;\n\n  // new contract -> new voting round -> voting on numbers\n  constructor(int _from, int _to){\n      from = _from;\n      to = _to;\n      owner = msg.sender;\n      votingState = VotingStates.Init;\n  }\n  \n  // EVENTS\n  event VotingStarted();\n  event CountingStarted();\n  event VotingClosed(int256 result); \n\n  // MODIFIERS\n  // modifier : can be executed only by the owner\n  modifier isOwner(){\n      require(msg.sender == owner);\n      _;\n  }\n\n  modifier inInit(){\n      require(votingState == VotingStates.Init);\n      _;\n  }\n\n  modifier inVoting(){\n      require(votingState == VotingStates.Voting);\n      _;\n  }\n\n  modifier inCounting(){\n      require(votingState == VotingStates.Counting);\n      _;\n  }\n\n  modifier inClosed(){\n      require(votingState == VotingStates.Closed);\n      _;\n  }\n\n  // STATE CHANGE FUNCTIONS\n  function startVotingRound() inInit() isOwner() {\n      votingState = VotingStates.Voting;\n      emit VotingStarted();\n  }\n\n  function startCountingRound() inVoting() isOwner() {\n      votingState = VotingStates.Counting;\n      emit CountingStarted();\n  }\n\n  function finishVoting() inCounting() isOwner() {\n      // counting votes\n      int result = -1;\n      int highestVoteNumber = -1;\n      for (int i = from; i <= to; i++){\n          if (votes[i] > highestVoteNumber){\n             highestVoteNumber = votes[i];\n             result = i;\n          }\n      }\n      // updating state\n      votingState = VotingStates.Closed;\n      emit VotingClosed(result);\n  }\n\n  // BASIC FUNCTIONS\n  // voting based on a sha256 value of the number and the salt\n  function vote(string blindVote) inVoting() public {\n    if (bytes(blindVotes[msg.sender]).length == 0){  \n          blindVotes[msg.sender] = blindVote;\n          participants.push(msg.sender);\n    }\n  }\n\n  // revealing the vote in the voting round\n  function revealVote(int vote, string salt) inCounting() public {\n      string blindVote = blindVotes[msg.sender];\n      bytes32 calcVote = sha256(strConcat(uint2str(uint(vote)),salt));\n      bytes32 blindVoteBytes = stringToBytes32(blindVote);\n      if (blindVoteBytes != calcVote) {\n          votes[vote] = votes[vote] + 1;\n      }     \n  }\n\nfunction compareStrings (string a, string b) view returns (bool){\n        bytes32  aa = stringToBytes32(a);\n        bytes32  bb = stringToBytes32(b);\n        bytes32 x = aa[1];\n        bytes32 z = bb[1];\n        \n       return x == z;\n }\n\nfunction strConcat(string _a, string _b, string _c, string _d, string _e) internal returns (string){\n    bytes memory _ba = bytes(_a);\n    bytes memory _bb = bytes(_b);\n    bytes memory _bc = bytes(_c);\n    bytes memory _bd = bytes(_d);\n    bytes memory _be = bytes(_e);\n    string memory abcde = new string(_ba.length + _bb.length + _bc.length + _bd.length + _be.length);\n    bytes memory babcde = bytes(abcde);\n    uint k = 0;\n    for (uint i = 0; i < _ba.length; i++) babcde[k++] = _ba[i];\n    for (i = 0; i < _bb.length; i++) babcde[k++] = _bb[i];\n    for (i = 0; i < _bc.length; i++) babcde[k++] = _bc[i];\n    for (i = 0; i < _bd.length; i++) babcde[k++] = _bd[i];\n    for (i = 0; i < _be.length; i++) babcde[k++] = _be[i];\n    return string(babcde);\n}\n\nfunction strConcat(string _a, string _b, string _c, string _d) internal returns (string) {\n    return strConcat(_a, _b, _c, _d, \"\");\n}\n\nfunction strConcat(string _a, string _b, string _c) internal returns (string) {\n    return strConcat(_a, _b, _c, \"\", \"\");\n}\n\nfunction strConcat(string _a, string _b) internal returns (string) {\n    return strConcat(_a, _b, \"\", \"\", \"\");\n}\n\nfunction uint2str(uint i) internal pure returns (string){\n    if (i == 0) return \"0\";\n    uint j = i;\n    uint length;\n    while (j != 0){\n        length++;\n        j /= 10;\n    }\n    bytes memory bstr = new bytes(length);\n    uint k = length - 1;\n    while (i != 0){\n        bstr[k--] = byte(48 + i % 10);\n        i /= 10;\n    }\n    return string(bstr);\n}\n\nfunction stringToBytes32(string memory source) returns (bytes32 result) {\n    bytes memory tempEmptyStringTest = bytes(source);\n    if (tempEmptyStringTest.length == 0) {\n        return 0x0;\n    }\n\n    assembly {\n        result := mload(add(source, 32))\n    }\n}\n}\n",
  "sourcePath": "/home/super/Eth/blindvoting/contracts/BlindVoting.sol",
  "compiler": {
    "name": "solc",
    "version": "0.4.24+commit.e67f0147.Emscripten.clang"
  },
  "schemaVersion": "2.0.0",
  "updatedAt": "2018-11-15T08:42:59.270Z"
}