{
  "contractName": "BlindVoting",
  "abi": [
    {
      "constant": true,
      "inputs": [],
      "name": "to",
      "outputs": [
        {
          "name": "",
          "type": "int256"
        }
      ],
      "payable": false,
      "stateMutability": "view",
      "type": "function"
    },
    {
      "constant": true,
      "inputs": [],
      "name": "version",
      "outputs": [
        {
          "name": "",
          "type": "string"
        }
      ],
      "payable": false,
      "stateMutability": "view",
      "type": "function"
    },
    {
      "constant": true,
      "inputs": [],
      "name": "owner",
      "outputs": [
        {
          "name": "",
          "type": "address"
        }
      ],
      "payable": false,
      "stateMutability": "view",
      "type": "function"
    },
    {
      "constant": true,
      "inputs": [],
      "name": "votingState",
      "outputs": [
        {
          "name": "",
          "type": "uint8"
        }
      ],
      "payable": false,
      "stateMutability": "view",
      "type": "function"
    },
    {
      "constant": true,
      "inputs": [],
      "name": "from",
      "outputs": [
        {
          "name": "",
          "type": "int256"
        }
      ],
      "payable": false,
      "stateMutability": "view",
      "type": "function"
    },
    {
      "constant": true,
      "inputs": [
        {
          "name": "",
          "type": "address"
        }
      ],
      "name": "blindVotes",
      "outputs": [
        {
          "name": "",
          "type": "string"
        }
      ],
      "payable": false,
      "stateMutability": "view",
      "type": "function"
    },
    {
      "inputs": [
        {
          "name": "_from",
          "type": "int256"
        },
        {
          "name": "_to",
          "type": "int256"
        }
      ],
      "payable": false,
      "stateMutability": "nonpayable",
      "type": "constructor"
    },
    {
      "anonymous": false,
      "inputs": [],
      "name": "VotingStarted",
      "type": "event"
    },
    {
      "anonymous": false,
      "inputs": [],
      "name": "CountingStarted",
      "type": "event"
    },
    {
      "anonymous": false,
      "inputs": [
        {
          "indexed": false,
          "name": "result",
          "type": "int256"
        }
      ],
      "name": "VotingClosed",
      "type": "event"
    },
    {
      "constant": false,
      "inputs": [],
      "name": "startVotingRound",
      "outputs": [],
      "payable": false,
      "stateMutability": "nonpayable",
      "type": "function"
    },
    {
      "constant": false,
      "inputs": [],
      "name": "startCountingRound",
      "outputs": [],
      "payable": false,
      "stateMutability": "nonpayable",
      "type": "function"
    },
    {
      "constant": false,
      "inputs": [],
      "name": "finishVoting",
      "outputs": [],
      "payable": false,
      "stateMutability": "nonpayable",
      "type": "function"
    },
    {
      "constant": false,
      "inputs": [
        {
          "name": "blindVote",
          "type": "string"
        }
      ],
      "name": "vote",
      "outputs": [],
      "payable": false,
      "stateMutability": "nonpayable",
      "type": "function"
    },
    {
      "constant": false,
      "inputs": [
        {
          "name": "vote",
          "type": "int256"
        },
        {
          "name": "salt",
          "type": "string"
        }
      ],
      "name": "revealVote",
      "outputs": [],
      "payable": false,
      "stateMutability": "nonpayable",
      "type": "function"
    },
    {
      "constant": false,
      "inputs": [
        {
          "name": "source",
          "type": "string"
        }
      ],
      "name": "stringToBytes32",
      "outputs": [
        {
          "name": "result",
          "type": "bytes32"
        }
      ],
      "payable": false,
      "stateMutability": "nonpayable",
      "type": "function"
    }
  ],
  "bytecode": "0x60806040526040805190810160405280600581526020017f302e302e31000000000000000000000000000000000000000000000000000000815250600190805190602001906200005192919062000108565b503480156200005f57600080fd5b50604051604080620012cf8339810180604052810190808051906020019092919080519060200190929190505050816002819055508060038190555033600460006101000a81548173ffffffffffffffffffffffffffffffffffffffff021916908373ffffffffffffffffffffffffffffffffffffffff16021790555060008060006101000a81548160ff02191690836003811115620000fb57fe5b02179055505050620001b7565b828054600181600116156101000203166002900490600052602060002090601f016020900481019282601f106200014b57805160ff19168380011785556200017c565b828001600101855582156200017c579182015b828111156200017b5782518255916020019190600101906200015e565b5b5090506200018b91906200018f565b5090565b620001b491905b80821115620001b057600081600090555060010162000196565b5090565b90565b61110880620001c76000396000f3006080604052600436106100ba576000357c0100000000000000000000000000000000000000000000000000000000900463ffffffff16806309800866146100bf578063131519811461013257806343fba5241461015d57806354fd4d50146101745780638da5cb5b14610204578063b62312bf1461025b578063cfb5192814610294578063d5ce338914610319578063dd7acd0614610344578063ee45219b14610400578063f909430314610417578063fc36e15b1461042e575b600080fd5b3480156100cb57600080fd5b5061013060048036038101908080359060200190929190803590602001908201803590602001908080601f0160208091040260200160405190810160405280939291908181526020018383808284378201915050505050509192919290505050610497565b005b34801561013e57600080fd5b5061014761061d565b6040518082815260200191505060405180910390f35b34801561016957600080fd5b50610172610623565b005b34801561018057600080fd5b50610189610703565b6040518080602001828103825283818151815260200191508051906020019080838360005b838110156101c95780820151818401526020810190506101ae565b50505050905090810190601f1680156101f65780820380516001836020036101000a031916815260200191505b509250505060405180910390f35b34801561021057600080fd5b506102196107a1565b604051808273ffffffffffffffffffffffffffffffffffffffff1673ffffffffffffffffffffffffffffffffffffffff16815260200191505060405180910390f35b34801561026757600080fd5b506102706107c7565b6040518082600381111561028057fe5b60ff16815260200191505060405180910390f35b3480156102a057600080fd5b506102fb600480360381019080803590602001908201803590602001908080601f01602080910402602001604051908101604052809392919081815260200183838082843782019150505050505091929192905050506107d9565b60405180826000191660001916815260200191505060405180910390f35b34801561032557600080fd5b5061032e610804565b6040518082815260200191505060405180910390f35b34801561035057600080fd5b50610385600480360381019080803573ffffffffffffffffffffffffffffffffffffffff16906020019092919050505061080a565b6040518080602001828103825283818151815260200191508051906020019080838360005b838110156103c55780820151818401526020810190506103aa565b50505050905090810190601f1680156103f25780820380516001836020036101000a031916815260200191505b509250505060405180910390f35b34801561040c57600080fd5b506104156108ba565b005b34801561042357600080fd5b5061042c61099a565b005b34801561043a57600080fd5b50610495600480360381019080803590602001908201803590602001908080601f0160208091040260200160405190810160405280939291908181526020018383808284378201915050505050509192919290505050610b26565b005b60006060600080600260038111156104ab57fe5b6000809054906101000a900460ff1660038111156104c557fe5b1415156104d157600080fd5b600560003373ffffffffffffffffffffffffffffffffffffffff1673ffffffffffffffffffffffffffffffffffffffff168152602001908152602001600020935061052461051e87610b29565b86610c80565b925061052f836107d9565b91506105d3848054600181600116156101000203166002900480601f0160208091040260200160405190810160405280929190818152602001828054600181600116156101000203166002900480156105c95780601f1061059e576101008083540402835291602001916105c9565b820191906000526020600020905b8154815290600101906020018083116105ac57829003601f168201915b50505050506107d9565b90508160001916816000191614151561061557600160066000888152602001908152602001600020540160066000888152602001908152602001600020819055505b505050505050565b60035481565b6000600381111561063057fe5b6000809054906101000a900460ff16600381111561064a57fe5b14151561065657600080fd5b600460009054906101000a900473ffffffffffffffffffffffffffffffffffffffff1673ffffffffffffffffffffffffffffffffffffffff163373ffffffffffffffffffffffffffffffffffffffff161415156106b257600080fd5b60016000806101000a81548160ff021916908360038111156106d057fe5b02179055507f877e2548498f42b7975a186b94ef1d32c86d420b7b806dd2be2bea293b89590460405160405180910390a1565b60018054600181600116156101000203166002900480601f0160208091040260200160405190810160405280929190818152602001828054600181600116156101000203166002900480156107995780601f1061076e57610100808354040283529160200191610799565b820191906000526020600020905b81548152906001019060200180831161077c57829003601f168201915b505050505081565b600460009054906101000a900473ffffffffffffffffffffffffffffffffffffffff1681565b6000809054906101000a900460ff1681565b600060608290506000815114156107f657600060010291506107fe565b602083015191505b50919050565b60025481565b60056020528060005260406000206000915090508054600181600116156101000203166002900480601f0160208091040260200160405190810160405280929190818152602001828054600181600116156101000203166002900480156108b25780601f10610887576101008083540402835291602001916108b2565b820191906000526020600020905b81548152906001019060200180831161089557829003601f168201915b505050505081565b600160038111156108c757fe5b6000809054906101000a900460ff1660038111156108e157fe5b1415156108ed57600080fd5b600460009054906101000a900473ffffffffffffffffffffffffffffffffffffffff1673ffffffffffffffffffffffffffffffffffffffff163373ffffffffffffffffffffffffffffffffffffffff1614151561094957600080fd5b60026000806101000a81548160ff0219169083600381111561096757fe5b02179055507f9ecf7ad6cf444ad1f50e63c33bd39a16daf393c1f484880d990058ee77f3aefd60405160405180910390a1565b6000806000600260038111156109ac57fe5b6000809054906101000a900460ff1660038111156109c657fe5b1415156109d257600080fd5b600460009054906101000a900473ffffffffffffffffffffffffffffffffffffffff1673ffffffffffffffffffffffffffffffffffffffff163373ffffffffffffffffffffffffffffffffffffffff16141515610a2e57600080fd5b7fffffffffffffffffffffffffffffffffffffffffffffffffffffffffffffffff92507fffffffffffffffffffffffffffffffffffffffffffffffffffffffffffffffff915060025490505b60035481131515610ac7578160066000838152602001908152602001600020541315610aba57600660008281526020019081526020016000205491508092505b8080600101915050610a7a565b60036000806101000a81548160ff02191690836003811115610ae557fe5b02179055507f8992f5bbaf7885501dd405153dd3f6a4a03711227b286f2e48e2b6076009c9ee836040518082815260200191505060405180910390a1505050565b50565b60606000806060600080861415610b77576040805190810160405280600181526020017f30000000000000000000000000000000000000000000000000000000000000008152509450610c77565b8593505b600084141515610ba1578280600101935050600a84811515610b9957fe5b049350610b7b565b826040519080825280601f01601f191660200182016040528015610bd45781602001602082028038833980820191505090505b5091506001830390505b600086141515610c7357600a86811515610bf457fe5b066030017f010000000000000000000000000000000000000000000000000000000000000002828280600190039350815181101515610c2f57fe5b9060200101907effffffffffffffffffffffffffffffffffffffffffffffffffffffffffffff1916908160001a905350600a86811515610c6b57fe5b049550610bde565b8194505b50505050919050565b6060610cbf8383602060405190810160405280600081525060206040519081016040528060008152506020604051908101604052806000815250610cc7565b905092915050565b6060806060806060806060806000808e98508d97508c96508b95508a94508451865188518a518c51010101016040519080825280601f01601f191660200182016040528015610d255781602001602082028038833980820191505090505b50935083925060009150600090505b8851811015610de7578881815181101515610d4b57fe5b9060200101517f010000000000000000000000000000000000000000000000000000000000000090047f0100000000000000000000000000000000000000000000000000000000000000028383806001019450815181101515610daa57fe5b9060200101907effffffffffffffffffffffffffffffffffffffffffffffffffffffffffffff1916908160001a9053508080600101915050610d34565b600090505b8751811015610e9f578781815181101515610e0357fe5b9060200101517f010000000000000000000000000000000000000000000000000000000000000090047f0100000000000000000000000000000000000000000000000000000000000000028383806001019450815181101515610e6257fe5b9060200101907effffffffffffffffffffffffffffffffffffffffffffffffffffffffffffff1916908160001a9053508080600101915050610dec565b600090505b8651811015610f57578681815181101515610ebb57fe5b9060200101517f010000000000000000000000000000000000000000000000000000000000000090047f0100000000000000000000000000000000000000000000000000000000000000028383806001019450815181101515610f1a57fe5b9060200101907effffffffffffffffffffffffffffffffffffffffffffffffffffffffffffff1916908160001a9053508080600101915050610ea4565b600090505b855181101561100f578581815181101515610f7357fe5b9060200101517f010000000000000000000000000000000000000000000000000000000000000090047f0100000000000000000000000000000000000000000000000000000000000000028383806001019450815181101515610fd257fe5b9060200101907effffffffffffffffffffffffffffffffffffffffffffffffffffffffffffff1916908160001a9053508080600101915050610f5c565b600090505b84518110156110c757848181518110151561102b57fe5b9060200101517f010000000000000000000000000000000000000000000000000000000000000090047f010000000000000000000000000000000000000000000000000000000000000002838380600101945081518110151561108a57fe5b9060200101907effffffffffffffffffffffffffffffffffffffffffffffffffffffffffffff1916908160001a9053508080600101915050611014565b829950505050505050505050959450505050505600a165627a7a7230582001c4538ddf4c8fdce0c1c0c849d57be0884fd2e628781817506b3057391e61440029",
  "source": "pragma solidity ^0.4.23;\n\ncontract BlindVoting {\n \n  enum VotingStates {Init, Voting, Counting, Closed }\n  VotingStates public votingState;\n  string public version = \"0.0.1\";\n  int public from;\n  int public to;\n  address public owner;\n  \n  mapping(address => string) public blindVotes;\n  mapping(int => int) votes;\n\n  // new contract -> new voting round -> voting on numbers\n  constructor(int _from, int _to){\n      from = _from;\n      to = _to;\n      owner = msg.sender;\n      votingState = VotingStates.Init;\n  }\n  \n  // EVENTS\n  event VotingStarted();\n  event CountingStarted();\n  event VotingClosed(int256 result); \n\n  // MODIFIERS\n  // modifier : can be executed only by the owner\n  modifier isOwner(){\n      require(msg.sender == owner);\n      _;\n  }\n\n  modifier inInit(){\n      require(votingState == VotingStates.Init);\n      _;\n  }\n\n  modifier inVoting(){\n      require(votingState == VotingStates.Voting);\n      _;\n  }\n\n  modifier inCounting(){\n      require(votingState == VotingStates.Counting);\n      _;\n  }\n\n  modifier inClosed(){\n      require(votingState == VotingStates.Closed);\n      _;\n  }\n\n  // STATE CHANGE FUNCTIONS\n  function startVotingRound() inInit() isOwner() {\n      votingState = VotingStates.Voting;\n      emit VotingStarted();\n  }\n\n  function startCountingRound() inVoting() isOwner() {\n      votingState = VotingStates.Counting;\n      emit CountingStarted();\n  }\n\n  function finishVoting() inCounting() isOwner() {\n      // counting votes\n      int result = -1;\n      int highestVoteNumber = -1;\n      for (int i = from; i <= to; i++){\n          if (votes[i] > highestVoteNumber){\n             highestVoteNumber = votes[i];\n             result = i;\n          }\n      }\n      // updating state\n      votingState = VotingStates.Closed;\n      emit VotingClosed(result);\n  }\n\n  function vote(string blindVote)  public {\n  }\n\n  // BASIC FUNCTIONS\n  // voting based on a sha256 value of the number and the salt\n\n  // revealing the vote in the voting round\n  function revealVote(int vote, string salt) inCounting() public {\n      string blindVote = blindVotes[msg.sender];\n      string memory calcVoteString = strConcat(uint2str(uint(vote)),salt);\n      bytes32 calcVote = stringToBytes32(calcVoteString);\n      bytes32 blindVoteBytes = stringToBytes32(blindVote);\n      if (blindVoteBytes != calcVote) {\n          votes[vote] = votes[vote] + 1;\n      }     \n  }\n\n// INTERNAL TOOLS\n\nfunction strConcat(string _a, string _b, string _c, string _d, string _e) internal returns (string){\n    bytes memory _ba = bytes(_a);\n    bytes memory _bb = bytes(_b);\n    bytes memory _bc = bytes(_c);\n    bytes memory _bd = bytes(_d);\n    bytes memory _be = bytes(_e);\n    string memory abcde = new string(_ba.length + _bb.length + _bc.length + _bd.length + _be.length);\n    bytes memory babcde = bytes(abcde);\n    uint k = 0;\n    for (uint i = 0; i < _ba.length; i++) babcde[k++] = _ba[i];\n    for (i = 0; i < _bb.length; i++) babcde[k++] = _bb[i];\n    for (i = 0; i < _bc.length; i++) babcde[k++] = _bc[i];\n    for (i = 0; i < _bd.length; i++) babcde[k++] = _bd[i];\n    for (i = 0; i < _be.length; i++) babcde[k++] = _be[i];\n    return string(babcde);\n}\n\nfunction strConcat(string _a, string _b, string _c, string _d) internal returns (string) {\n    return strConcat(_a, _b, _c, _d, \"\");\n}\n\nfunction strConcat(string _a, string _b, string _c) internal returns (string) {\n    return strConcat(_a, _b, _c, \"\", \"\");\n}\n\nfunction strConcat(string _a, string _b) internal returns (string) {\n    return strConcat(_a, _b, \"\", \"\", \"\");\n}\n\nfunction uint2str(uint i) internal pure returns (string){\n    if (i == 0) return \"0\";\n    uint j = i;\n    uint length;\n    while (j != 0){\n        length++;\n        j /= 10;\n    }\n    bytes memory bstr = new bytes(length);\n    uint k = length - 1;\n    while (i != 0){\n        bstr[k--] = byte(48 + i % 10);\n        i /= 10;\n    }\n    return string(bstr);\n}\n\nfunction stringToBytes32(string memory source) returns (bytes32 result) {\n    bytes memory tempEmptyStringTest = bytes(source);\n    if (tempEmptyStringTest.length == 0) {\n        return 0x0;\n    }\n\n    assembly {\n        result := mload(add(source, 32))\n    }\n}\n}\n",
  "sourcePath": "/home/super/Eth/blindvoting/contracts/BlindVoting.sol",
  "compiler": {
    "name": "solc",
    "version": "0.4.24+commit.e67f0147.Emscripten.clang"
  },
  "schemaVersion": "2.0.0",
  "updatedAt": "2018-11-15T10:23:49.019Z"
}