{
  "contractName": "BlindVoting",
  "abi": [
    {
      "constant": true,
      "inputs": [],
      "name": "to",
      "outputs": [
        {
          "name": "",
          "type": "int256"
        }
      ],
      "payable": false,
      "stateMutability": "view",
      "type": "function"
    },
    {
      "constant": true,
      "inputs": [],
      "name": "version",
      "outputs": [
        {
          "name": "",
          "type": "string"
        }
      ],
      "payable": false,
      "stateMutability": "view",
      "type": "function"
    },
    {
      "constant": true,
      "inputs": [],
      "name": "owner",
      "outputs": [
        {
          "name": "",
          "type": "address"
        }
      ],
      "payable": false,
      "stateMutability": "view",
      "type": "function"
    },
    {
      "constant": true,
      "inputs": [],
      "name": "votingState",
      "outputs": [
        {
          "name": "",
          "type": "uint8"
        }
      ],
      "payable": false,
      "stateMutability": "view",
      "type": "function"
    },
    {
      "constant": true,
      "inputs": [],
      "name": "from",
      "outputs": [
        {
          "name": "",
          "type": "int256"
        }
      ],
      "payable": false,
      "stateMutability": "view",
      "type": "function"
    },
    {
      "constant": true,
      "inputs": [
        {
          "name": "",
          "type": "address"
        }
      ],
      "name": "blindVotes",
      "outputs": [
        {
          "name": "",
          "type": "string"
        }
      ],
      "payable": false,
      "stateMutability": "view",
      "type": "function"
    },
    {
      "inputs": [
        {
          "name": "_from",
          "type": "int256"
        },
        {
          "name": "_to",
          "type": "int256"
        }
      ],
      "payable": false,
      "stateMutability": "nonpayable",
      "type": "constructor"
    },
    {
      "anonymous": false,
      "inputs": [],
      "name": "VotingStarted",
      "type": "event"
    },
    {
      "anonymous": false,
      "inputs": [],
      "name": "CountingStarted",
      "type": "event"
    },
    {
      "anonymous": false,
      "inputs": [
        {
          "indexed": false,
          "name": "result",
          "type": "int256"
        }
      ],
      "name": "VotingClosed",
      "type": "event"
    },
    {
      "constant": false,
      "inputs": [],
      "name": "startVotingRound",
      "outputs": [],
      "payable": false,
      "stateMutability": "nonpayable",
      "type": "function"
    },
    {
      "constant": false,
      "inputs": [],
      "name": "startCountingRound",
      "outputs": [],
      "payable": false,
      "stateMutability": "nonpayable",
      "type": "function"
    },
    {
      "constant": false,
      "inputs": [],
      "name": "finishVoting",
      "outputs": [],
      "payable": false,
      "stateMutability": "nonpayable",
      "type": "function"
    },
    {
      "constant": false,
      "inputs": [
        {
          "name": "blindVote",
          "type": "string"
        }
      ],
      "name": "voteX",
      "outputs": [],
      "payable": false,
      "stateMutability": "nonpayable",
      "type": "function"
    },
    {
      "constant": false,
      "inputs": [
        {
          "name": "blindVote",
          "type": "string"
        }
      ],
      "name": "vote",
      "outputs": [],
      "payable": false,
      "stateMutability": "nonpayable",
      "type": "function"
    },
    {
      "constant": false,
      "inputs": [
        {
          "name": "vote",
          "type": "int256"
        },
        {
          "name": "salt",
          "type": "string"
        }
      ],
      "name": "revealVote",
      "outputs": [],
      "payable": false,
      "stateMutability": "nonpayable",
      "type": "function"
    },
    {
      "constant": false,
      "inputs": [
        {
          "name": "source",
          "type": "string"
        }
      ],
      "name": "stringToBytes32",
      "outputs": [
        {
          "name": "result",
          "type": "bytes32"
        }
      ],
      "payable": false,
      "stateMutability": "nonpayable",
      "type": "function"
    }
  ],
  "bytecode": "0x60806040526040805190810160405280600581526020017f302e302e31000000000000000000000000000000000000000000000000000000815250600190805190602001906200005192919062000108565b503480156200005f57600080fd5b506040516040806200155a8339810180604052810190808051906020019092919080519060200190929190505050816002819055508060038190555033600460006101000a81548173ffffffffffffffffffffffffffffffffffffffff021916908373ffffffffffffffffffffffffffffffffffffffff16021790555060008060006101000a81548160ff02191690836003811115620000fb57fe5b02179055505050620001b7565b828054600181600116156101000203166002900490600052602060002090601f016020900481019282601f106200014b57805160ff19168380011785556200017c565b828001600101855582156200017c579182015b828111156200017b5782518255916020019190600101906200015e565b5b5090506200018b91906200018f565b5090565b620001b491905b80821115620001b057600081600090555060010162000196565b5090565b90565b61139380620001c76000396000f3006080604052600436106100c5576000357c0100000000000000000000000000000000000000000000000000000000900463ffffffff16806309800866146100ca578063131519811461013d57806343fba5241461016857806354fd4d501461017f5780638da5cb5b1461020f5780639b76ddf614610266578063b62312bf146102cf578063cfb5192814610308578063d5ce33891461038d578063dd7acd06146103b8578063ee45219b14610474578063f90943031461048b578063fc36e15b146104a2575b600080fd5b3480156100d657600080fd5b5061013b60048036038101908080359060200190929190803590602001908201803590602001908080601f016020809104026020016040519081016040528093929190818152602001838380828437820191505050505050919291929050505061050b565b005b34801561014957600080fd5b50610152610691565b6040518082815260200191505060405180910390f35b34801561017457600080fd5b5061017d610697565b005b34801561018b57600080fd5b50610194610777565b6040518080602001828103825283818151815260200191508051906020019080838360005b838110156101d45780820151818401526020810190506101b9565b50505050905090810190601f1680156102015780820380516001836020036101000a031916815260200191505b509250505060405180910390f35b34801561021b57600080fd5b50610224610815565b604051808273ffffffffffffffffffffffffffffffffffffffff1673ffffffffffffffffffffffffffffffffffffffff16815260200191505060405180910390f35b34801561027257600080fd5b506102cd600480360381019080803590602001908201803590602001908080601f016020809104026020016040519081016040528093929190818152602001838380828437820191505050505050919291929050505061083b565b005b3480156102db57600080fd5b506102e461083e565b604051808260038111156102f457fe5b60ff16815260200191505060405180910390f35b34801561031457600080fd5b5061036f600480360381019080803590602001908201803590602001908080601f0160208091040260200160405190810160405280939291908181526020018383808284378201915050505050509192919290505050610850565b60405180826000191660001916815260200191505060405180910390f35b34801561039957600080fd5b506103a261087b565b6040518082815260200191505060405180910390f35b3480156103c457600080fd5b506103f9600480360381019080803573ffffffffffffffffffffffffffffffffffffffff169060200190929190505050610881565b6040518080602001828103825283818151815260200191508051906020019080838360005b8381101561043957808201518184015260208101905061041e565b50505050905090810190601f1680156104665780820380516001836020036101000a031916815260200191505b509250505060405180910390f35b34801561048057600080fd5b50610489610931565b005b34801561049757600080fd5b506104a0610a11565b005b3480156104ae57600080fd5b50610509600480360381019080803590602001908201803590602001908080601f0160208091040260200160405190810160405280939291908181526020018383808284378201915050505050509192919290505050610b9d565b005b600060606000806002600381111561051f57fe5b6000809054906101000a900460ff16600381111561053957fe5b14151561054557600080fd5b600560003373ffffffffffffffffffffffffffffffffffffffff1673ffffffffffffffffffffffffffffffffffffffff168152602001908152602001600020935061059861059287610d0f565b86610e66565b92506105a383610850565b9150610647848054600181600116156101000203166002900480601f01602080910402602001604051908101604052809291908181526020018280546001816001161561010002031660029004801561063d5780601f106106125761010080835404028352916020019161063d565b820191906000526020600020905b81548152906001019060200180831161062057829003601f168201915b5050505050610850565b90508160001916816000191614151561068957600160066000888152602001908152602001600020540160066000888152602001908152602001600020819055505b505050505050565b60035481565b600060038111156106a457fe5b6000809054906101000a900460ff1660038111156106be57fe5b1415156106ca57600080fd5b600460009054906101000a900473ffffffffffffffffffffffffffffffffffffffff1673ffffffffffffffffffffffffffffffffffffffff163373ffffffffffffffffffffffffffffffffffffffff1614151561072657600080fd5b60016000806101000a81548160ff0219169083600381111561074457fe5b02179055507f877e2548498f42b7975a186b94ef1d32c86d420b7b806dd2be2bea293b89590460405160405180910390a1565b60018054600181600116156101000203166002900480601f01602080910402602001604051908101604052809291908181526020018280546001816001161561010002031660029004801561080d5780601f106107e25761010080835404028352916020019161080d565b820191906000526020600020905b8154815290600101906020018083116107f057829003601f168201915b505050505081565b600460009054906101000a900473ffffffffffffffffffffffffffffffffffffffff1681565b50565b6000809054906101000a900460ff1681565b6000606082905060008151141561086d5760006001029150610875565b602083015191505b50919050565b60025481565b60056020528060005260406000206000915090508054600181600116156101000203166002900480601f0160208091040260200160405190810160405280929190818152602001828054600181600116156101000203166002900480156109295780601f106108fe57610100808354040283529160200191610929565b820191906000526020600020905b81548152906001019060200180831161090c57829003601f168201915b505050505081565b6001600381111561093e57fe5b6000809054906101000a900460ff16600381111561095857fe5b14151561096457600080fd5b600460009054906101000a900473ffffffffffffffffffffffffffffffffffffffff1673ffffffffffffffffffffffffffffffffffffffff163373ffffffffffffffffffffffffffffffffffffffff161415156109c057600080fd5b60026000806101000a81548160ff021916908360038111156109de57fe5b02179055507f9ecf7ad6cf444ad1f50e63c33bd39a16daf393c1f484880d990058ee77f3aefd60405160405180910390a1565b600080600060026003811115610a2357fe5b6000809054906101000a900460ff166003811115610a3d57fe5b141515610a4957600080fd5b600460009054906101000a900473ffffffffffffffffffffffffffffffffffffffff1673ffffffffffffffffffffffffffffffffffffffff163373ffffffffffffffffffffffffffffffffffffffff16141515610aa557600080fd5b7fffffffffffffffffffffffffffffffffffffffffffffffffffffffffffffffff92507fffffffffffffffffffffffffffffffffffffffffffffffffffffffffffffffff915060025490505b60035481131515610b3e578160066000838152602001908152602001600020541315610b3157600660008281526020019081526020016000205491508092505b8080600101915050610af1565b60036000806101000a81548160ff02191690836003811115610b5c57fe5b02179055507f8992f5bbaf7885501dd405153dd3f6a4a03711227b286f2e48e2b6076009c9ee836040518082815260200191505060405180910390a1505050565b606060016003811115610bac57fe5b6000809054906101000a900460ff166003811115610bc657fe5b141515610bd257600080fd5b600560003373ffffffffffffffffffffffffffffffffffffffff1673ffffffffffffffffffffffffffffffffffffffff1681526020019081526020016000208054600181600116156101000203166002900480601f016020809104026020016040519081016040528092919081815260200182805460018160011615610100020316600290048015610ca55780601f10610c7a57610100808354040283529160200191610ca5565b820191906000526020600020905b815481529060010190602001808311610c8857829003601f168201915b50505050509050600081511415610d0b5781600560003373ffffffffffffffffffffffffffffffffffffffff1673ffffffffffffffffffffffffffffffffffffffff1681526020019081526020016000209080519060200190610d099291906112c2565b505b5050565b60606000806060600080861415610d5d576040805190810160405280600181526020017f30000000000000000000000000000000000000000000000000000000000000008152509450610e5d565b8593505b600084141515610d87578280600101935050600a84811515610d7f57fe5b049350610d61565b826040519080825280601f01601f191660200182016040528015610dba5781602001602082028038833980820191505090505b5091506001830390505b600086141515610e5957600a86811515610dda57fe5b066030017f010000000000000000000000000000000000000000000000000000000000000002828280600190039350815181101515610e1557fe5b9060200101907effffffffffffffffffffffffffffffffffffffffffffffffffffffffffffff1916908160001a905350600a86811515610e5157fe5b049550610dc4565b8194505b50505050919050565b6060610ea58383602060405190810160405280600081525060206040519081016040528060008152506020604051908101604052806000815250610ead565b905092915050565b6060806060806060806060806000808e98508d97508c96508b95508a94508451865188518a518c51010101016040519080825280601f01601f191660200182016040528015610f0b5781602001602082028038833980820191505090505b50935083925060009150600090505b8851811015610fcd578881815181101515610f3157fe5b9060200101517f010000000000000000000000000000000000000000000000000000000000000090047f0100000000000000000000000000000000000000000000000000000000000000028383806001019450815181101515610f9057fe5b9060200101907effffffffffffffffffffffffffffffffffffffffffffffffffffffffffffff1916908160001a9053508080600101915050610f1a565b600090505b8751811015611085578781815181101515610fe957fe5b9060200101517f010000000000000000000000000000000000000000000000000000000000000090047f010000000000000000000000000000000000000000000000000000000000000002838380600101945081518110151561104857fe5b9060200101907effffffffffffffffffffffffffffffffffffffffffffffffffffffffffffff1916908160001a9053508080600101915050610fd2565b600090505b865181101561113d5786818151811015156110a157fe5b9060200101517f010000000000000000000000000000000000000000000000000000000000000090047f010000000000000000000000000000000000000000000000000000000000000002838380600101945081518110151561110057fe5b9060200101907effffffffffffffffffffffffffffffffffffffffffffffffffffffffffffff1916908160001a905350808060010191505061108a565b600090505b85518110156111f557858181518110151561115957fe5b9060200101517f010000000000000000000000000000000000000000000000000000000000000090047f01000000000000000000000000000000000000000000000000000000000000000283838060010194508151811015156111b857fe5b9060200101907effffffffffffffffffffffffffffffffffffffffffffffffffffffffffffff1916908160001a9053508080600101915050611142565b600090505b84518110156112ad57848181518110151561121157fe5b9060200101517f010000000000000000000000000000000000000000000000000000000000000090047f010000000000000000000000000000000000000000000000000000000000000002838380600101945081518110151561127057fe5b9060200101907effffffffffffffffffffffffffffffffffffffffffffffffffffffffffffff1916908160001a90535080806001019150506111fa565b82995050505050505050505095945050505050565b828054600181600116156101000203166002900490600052602060002090601f016020900481019282601f1061130357805160ff1916838001178555611331565b82800160010185558215611331579182015b82811115611330578251825591602001919060010190611315565b5b50905061133e9190611342565b5090565b61136491905b80821115611360576000816000905550600101611348565b5090565b905600a165627a7a7230582098aecf25ba7968c5da154587cec0d9e060e39ffe084e6e871234a95baee5e6610029",
  "source": "pragma solidity ^0.4.23;\n\ncontract BlindVoting {\n \n  enum VotingStates {Init, Voting, Counting, Closed }\n  VotingStates public votingState;\n  string public version = \"0.0.1\";\n  int public from;\n  int public to;\n  address public owner;\n  \n  mapping(address => string) public blindVotes;\n  mapping(int => int) votes;\n\n  // new contract -> new voting round -> voting on numbers\n  constructor(int _from, int _to){\n      from = _from;\n      to = _to;\n      owner = msg.sender;\n      votingState = VotingStates.Init;\n  }\n  \n  // EVENTS\n  event VotingStarted();\n  event CountingStarted();\n  event VotingClosed(int256 result); \n\n  // MODIFIERS\n  // modifier : can be executed only by the owner\n  modifier isOwner(){\n      require(msg.sender == owner);\n      _;\n  }\n\n  modifier inInit(){\n      require(votingState == VotingStates.Init);\n      _;\n  }\n\n  modifier inVoting(){\n      require(votingState == VotingStates.Voting);\n      _;\n  }\n\n  modifier inCounting(){\n      require(votingState == VotingStates.Counting);\n      _;\n  }\n\n  modifier inClosed(){\n      require(votingState == VotingStates.Closed);\n      _;\n  }\n\n  // STATE CHANGE FUNCTIONS\n  function startVotingRound() inInit() isOwner() {\n      votingState = VotingStates.Voting;\n      emit VotingStarted();\n  }\n\n  function startCountingRound() inVoting() isOwner() {\n      votingState = VotingStates.Counting;\n      emit CountingStarted();\n  }\n\n  function finishVoting() inCounting() isOwner() {\n      // counting votes\n      int result = -1;\n      int highestVoteNumber = -1;\n      for (int i = from; i <= to; i++){\n          if (votes[i] > highestVoteNumber){\n             highestVoteNumber = votes[i];\n             result = i;\n          }\n      }\n      // updating state\n      votingState = VotingStates.Closed;\n      emit VotingClosed(result);\n  }\n\n\n  // BASIC FUNCTIONS\n\n    // voting based on a sha256 value of the number and the salt\n  function voteX(string blindVote)   public {\n  }\n  // voting based on a sha256 value of the number and the salt\n  function vote(string blindVote)  inVoting() public {\n    bytes memory tempEmptyStringTest = bytes(blindVotes[msg.sender]); \n    if (tempEmptyStringTest.length == 0){  \n          blindVotes[msg.sender] = blindVote;\n    }\n  }\n\n\n  // revealing the vote in the voting round\n  function revealVote(int vote, string salt) inCounting() public {\n      string blindVote = blindVotes[msg.sender];\n      string memory calcVoteString = strConcat(uint2str(uint(vote)),salt);\n      bytes32 calcVote = stringToBytes32(calcVoteString);\n      bytes32 blindVoteBytes = stringToBytes32(blindVote);\n      if (blindVoteBytes != calcVote) {\n          votes[vote] = votes[vote] + 1;\n      }     \n  }\n\n// INTERNAL TOOLS\n\nfunction strConcat(string _a, string _b, string _c, string _d, string _e) internal returns (string){\n    bytes memory _ba = bytes(_a);\n    bytes memory _bb = bytes(_b);\n    bytes memory _bc = bytes(_c);\n    bytes memory _bd = bytes(_d);\n    bytes memory _be = bytes(_e);\n    string memory abcde = new string(_ba.length + _bb.length + _bc.length + _bd.length + _be.length);\n    bytes memory babcde = bytes(abcde);\n    uint k = 0;\n    for (uint i = 0; i < _ba.length; i++) babcde[k++] = _ba[i];\n    for (i = 0; i < _bb.length; i++) babcde[k++] = _bb[i];\n    for (i = 0; i < _bc.length; i++) babcde[k++] = _bc[i];\n    for (i = 0; i < _bd.length; i++) babcde[k++] = _bd[i];\n    for (i = 0; i < _be.length; i++) babcde[k++] = _be[i];\n    return string(babcde);\n}\n\nfunction strConcat(string _a, string _b, string _c, string _d) internal returns (string) {\n    return strConcat(_a, _b, _c, _d, \"\");\n}\n\nfunction strConcat(string _a, string _b, string _c) internal returns (string) {\n    return strConcat(_a, _b, _c, \"\", \"\");\n}\n\nfunction strConcat(string _a, string _b) internal returns (string) {\n    return strConcat(_a, _b, \"\", \"\", \"\");\n}\n\nfunction uint2str(uint i) internal pure returns (string){\n    if (i == 0) return \"0\";\n    uint j = i;\n    uint length;\n    while (j != 0){\n        length++;\n        j /= 10;\n    }\n    bytes memory bstr = new bytes(length);\n    uint k = length - 1;\n    while (i != 0){\n        bstr[k--] = byte(48 + i % 10);\n        i /= 10;\n    }\n    return string(bstr);\n}\n\nfunction stringToBytes32(string memory source) returns (bytes32 result) {\n    bytes memory tempEmptyStringTest = bytes(source);\n    if (tempEmptyStringTest.length == 0) {\n        return 0x0;\n    }\n\n    assembly {\n        result := mload(add(source, 32))\n    }\n}\n}\n",
  "sourcePath": "/home/super/Eth/blindvoting/contracts/BlindVoting.sol",
  "compiler": {
    "name": "solc",
    "version": "0.4.24+commit.e67f0147.Emscripten.clang"
  },
  "schemaVersion": "2.0.0",
  "updatedAt": "2018-11-15T13:17:08.733Z"
}