{
  "contractName": "BlindVoting",
  "abi": [
    {
      "constant": true,
      "inputs": [],
      "name": "to",
      "outputs": [
        {
          "name": "",
          "type": "int256"
        }
      ],
      "payable": false,
      "stateMutability": "view",
      "type": "function"
    },
    {
      "constant": true,
      "inputs": [],
      "name": "version",
      "outputs": [
        {
          "name": "",
          "type": "string"
        }
      ],
      "payable": false,
      "stateMutability": "view",
      "type": "function"
    },
    {
      "constant": true,
      "inputs": [],
      "name": "owner",
      "outputs": [
        {
          "name": "",
          "type": "address"
        }
      ],
      "payable": false,
      "stateMutability": "view",
      "type": "function"
    },
    {
      "constant": true,
      "inputs": [],
      "name": "votingState",
      "outputs": [
        {
          "name": "",
          "type": "uint8"
        }
      ],
      "payable": false,
      "stateMutability": "view",
      "type": "function"
    },
    {
      "constant": true,
      "inputs": [],
      "name": "from",
      "outputs": [
        {
          "name": "",
          "type": "int256"
        }
      ],
      "payable": false,
      "stateMutability": "view",
      "type": "function"
    },
    {
      "constant": true,
      "inputs": [
        {
          "name": "",
          "type": "address"
        }
      ],
      "name": "blindVotes",
      "outputs": [
        {
          "name": "",
          "type": "string"
        }
      ],
      "payable": false,
      "stateMutability": "view",
      "type": "function"
    },
    {
      "inputs": [
        {
          "name": "_from",
          "type": "int256"
        },
        {
          "name": "_to",
          "type": "int256"
        }
      ],
      "payable": false,
      "stateMutability": "nonpayable",
      "type": "constructor"
    },
    {
      "anonymous": false,
      "inputs": [],
      "name": "VotingStarted",
      "type": "event"
    },
    {
      "anonymous": false,
      "inputs": [],
      "name": "CountingStarted",
      "type": "event"
    },
    {
      "anonymous": false,
      "inputs": [
        {
          "indexed": false,
          "name": "result",
          "type": "int256"
        }
      ],
      "name": "VotingClosed",
      "type": "event"
    },
    {
      "constant": false,
      "inputs": [],
      "name": "startVotingRound",
      "outputs": [],
      "payable": false,
      "stateMutability": "nonpayable",
      "type": "function"
    },
    {
      "constant": false,
      "inputs": [],
      "name": "startCountingRound",
      "outputs": [],
      "payable": false,
      "stateMutability": "nonpayable",
      "type": "function"
    },
    {
      "constant": false,
      "inputs": [],
      "name": "finishVoting",
      "outputs": [],
      "payable": false,
      "stateMutability": "nonpayable",
      "type": "function"
    },
    {
      "constant": false,
      "inputs": [
        {
          "name": "blindVote",
          "type": "string"
        }
      ],
      "name": "vote",
      "outputs": [],
      "payable": false,
      "stateMutability": "nonpayable",
      "type": "function"
    },
    {
      "constant": false,
      "inputs": [
        {
          "name": "vote",
          "type": "int256"
        },
        {
          "name": "salt",
          "type": "string"
        }
      ],
      "name": "revealVote",
      "outputs": [],
      "payable": false,
      "stateMutability": "nonpayable",
      "type": "function"
    },
    {
      "constant": true,
      "inputs": [
        {
          "name": "a",
          "type": "string"
        },
        {
          "name": "b",
          "type": "string"
        }
      ],
      "name": "compareStrings",
      "outputs": [
        {
          "name": "",
          "type": "bool"
        }
      ],
      "payable": false,
      "stateMutability": "view",
      "type": "function"
    },
    {
      "constant": false,
      "inputs": [
        {
          "name": "source",
          "type": "string"
        }
      ],
      "name": "stringToBytes32",
      "outputs": [
        {
          "name": "result",
          "type": "bytes32"
        }
      ],
      "payable": false,
      "stateMutability": "nonpayable",
      "type": "function"
    }
  ],
  "bytecode": "0x60806040526040805190810160405280600581526020017f302e302e310000000000000000000000000000000000000000000000000000008152506001908051906020019061004f929190610103565b5034801561005c57600080fd5b50604051604080620011158339810180604052810190808051906020019092919080519060200190929190505050816002819055508060038190555033600460006101000a81548173ffffffffffffffffffffffffffffffffffffffff021916908373ffffffffffffffffffffffffffffffffffffffff16021790555060008060006101000a81548160ff021916908360038111156100f757fe5b021790555050506101a8565b828054600181600116156101000203166002900490600052602060002090601f016020900481019282601f1061014457805160ff1916838001178555610172565b82800160010185558215610172579182015b82811115610171578251825591602001919060010190610156565b5b50905061017f9190610183565b5090565b6101a591905b808211156101a1576000816000905550600101610189565b5090565b90565b610f5d80620001b86000396000f3006080604052600436106100c5576000357c0100000000000000000000000000000000000000000000000000000000900463ffffffff16806309800866146100ca578063131519811461013d57806343fba5241461016857806354fd4d501461017f5780638da5cb5b1461020f578063b62312bf14610266578063bed34bba1461029f578063cfb5192814610366578063d5ce3389146103eb578063dd7acd0614610416578063ee45219b146104d2578063f9094303146104e9578063fc36e15b14610500575b600080fd5b3480156100d657600080fd5b5061013b60048036038101908080359060200190929190803590602001908201803590602001908080601f0160208091040260200160405190810160405280939291908181526020018383808284378201915050505050509192919290505050610569565b005b34801561014957600080fd5b50610152610755565b6040518082815260200191505060405180910390f35b34801561017457600080fd5b5061017d61075b565b005b34801561018b57600080fd5b5061019461083b565b6040518080602001828103825283818151815260200191508051906020019080838360005b838110156101d45780820151818401526020810190506101b9565b50505050905090810190601f1680156102015780820380516001836020036101000a031916815260200191505b509250505060405180910390f35b34801561021b57600080fd5b506102246108d9565b604051808273ffffffffffffffffffffffffffffffffffffffff1673ffffffffffffffffffffffffffffffffffffffff16815260200191505060405180910390f35b34801561027257600080fd5b5061027b6108ff565b6040518082600381111561028b57fe5b60ff16815260200191505060405180910390f35b3480156102ab57600080fd5b5061034c600480360381019080803590602001908201803590602001908080601f0160208091040260200160405190810160405280939291908181526020018383808284378201915050505050509192919290803590602001908201803590602001908080601f0160208091040260200160405190810160405280939291908181526020018383808284378201915050505050509192919290505050610911565b604051808215151515815260200191505060405180910390f35b34801561037257600080fd5b506103cd600480360381019080803590602001908201803590602001908080601f01602080910402602001604051908101604052809392919081815260200183838082843782019150505050505091929192905050506109f2565b60405180826000191660001916815260200191505060405180910390f35b3480156103f757600080fd5b50610400610a1d565b6040518082815260200191505060405180910390f35b34801561042257600080fd5b50610457600480360381019080803573ffffffffffffffffffffffffffffffffffffffff169060200190929190505050610a23565b6040518080602001828103825283818151815260200191508051906020019080838360005b8381101561049757808201518184015260208101905061047c565b50505050905090810190601f1680156104c45780820380516001836020036101000a031916815260200191505b509250505060405180910390f35b3480156104de57600080fd5b506104e7610ad3565b005b3480156104f557600080fd5b506104fe610bb3565b005b34801561050c57600080fd5b50610567600480360381019080803590602001908201803590602001908080601f0160208091040260200160405190810160405280939291908181526020018383808284378201915050505050509192919290505050610d3f565b005b60006002600381111561057857fe5b6000809054906101000a900460ff16600381111561059257fe5b14151561059e57600080fd5b600760003373ffffffffffffffffffffffffffffffffffffffff1673ffffffffffffffffffffffffffffffffffffffff168152602001908152602001600020905061071c818054600181600116156101000203166002900480601f0160208091040260200160405190810160405280929190818152602001828054600181600116156101000203166002900480156106775780601f1061064c57610100808354040283529160200191610677565b820191906000526020600020905b81548152906001019060200180831161065a57829003601f168201915b505050505060058054600181600116156101000203166002900480601f0160208091040260200160405190810160405280929190818152602001828054600181600116156101000203166002900480156107125780601f106106e757610100808354040283529160200191610712565b820191906000526020600020905b8154815290600101906020018083116106f557829003601f168201915b5050505050610911565b1561075057600160086000858152602001908152602001600020540160086000858152602001908152602001600020819055505b505050565b60035481565b6000600381111561076857fe5b6000809054906101000a900460ff16600381111561078257fe5b14151561078e57600080fd5b600460009054906101000a900473ffffffffffffffffffffffffffffffffffffffff1673ffffffffffffffffffffffffffffffffffffffff163373ffffffffffffffffffffffffffffffffffffffff161415156107ea57600080fd5b60016000806101000a81548160ff0219169083600381111561080857fe5b02179055507f877e2548498f42b7975a186b94ef1d32c86d420b7b806dd2be2bea293b89590460405160405180910390a1565b60018054600181600116156101000203166002900480601f0160208091040260200160405190810160405280929190818152602001828054600181600116156101000203166002900480156108d15780601f106108a6576101008083540402835291602001916108d1565b820191906000526020600020905b8154815290600101906020018083116108b457829003601f168201915b505050505081565b600460009054906101000a900473ffffffffffffffffffffffffffffffffffffffff1681565b6000809054906101000a900460ff1681565b6000806000806000610922876109f2565b935061092d866109f2565b925083600160208110151561093e57fe5b1a7f0100000000000000000000000000000000000000000000000000000000000000027effffffffffffffffffffffffffffffffffffffffffffffffffffffffffffff1916915082600160208110151561099457fe5b1a7f0100000000000000000000000000000000000000000000000000000000000000027effffffffffffffffffffffffffffffffffffffffffffffffffffffffffffff19169050806000191682600019161494505050505092915050565b60006060829050600081511415610a0f5760006001029150610a17565b602083015191505b50919050565b60025481565b60076020528060005260406000206000915090508054600181600116156101000203166002900480601f016020809104026020016040519081016040528092919081815260200182805460018160011615610100020316600290048015610acb5780601f10610aa057610100808354040283529160200191610acb565b820191906000526020600020905b815481529060010190602001808311610aae57829003601f168201915b505050505081565b60016003811115610ae057fe5b6000809054906101000a900460ff166003811115610afa57fe5b141515610b0657600080fd5b600460009054906101000a900473ffffffffffffffffffffffffffffffffffffffff1673ffffffffffffffffffffffffffffffffffffffff163373ffffffffffffffffffffffffffffffffffffffff16141515610b6257600080fd5b60026000806101000a81548160ff02191690836003811115610b8057fe5b02179055507f9ecf7ad6cf444ad1f50e63c33bd39a16daf393c1f484880d990058ee77f3aefd60405160405180910390a1565b600080600060026003811115610bc557fe5b6000809054906101000a900460ff166003811115610bdf57fe5b141515610beb57600080fd5b600460009054906101000a900473ffffffffffffffffffffffffffffffffffffffff1673ffffffffffffffffffffffffffffffffffffffff163373ffffffffffffffffffffffffffffffffffffffff16141515610c4757600080fd5b7fffffffffffffffffffffffffffffffffffffffffffffffffffffffffffffffff92507fffffffffffffffffffffffffffffffffffffffffffffffffffffffffffffffff915060025490505b60035481131515610ce0578160086000838152602001908152602001600020541315610cd357600860008281526020019081526020016000205491508092505b8080600101915050610c93565b60036000806101000a81548160ff02191690836003811115610cfe57fe5b02179055507f8992f5bbaf7885501dd405153dd3f6a4a03711227b286f2e48e2b6076009c9ee836040518082815260200191505060405180910390a1505050565b60016003811115610d4c57fe5b6000809054906101000a900460ff166003811115610d6657fe5b141515610d7257600080fd5b6000600760003373ffffffffffffffffffffffffffffffffffffffff1673ffffffffffffffffffffffffffffffffffffffff1681526020019081526020016000208054600181600116156101000203166002900490501415610e895780600760003373ffffffffffffffffffffffffffffffffffffffff1673ffffffffffffffffffffffffffffffffffffffff1681526020019081526020016000209080519060200190610e21929190610e8c565b5060063390806001815401808255809150509060018203906000526020600020016000909192909190916101000a81548173ffffffffffffffffffffffffffffffffffffffff021916908373ffffffffffffffffffffffffffffffffffffffff160217905550505b50565b828054600181600116156101000203166002900490600052602060002090601f016020900481019282601f10610ecd57805160ff1916838001178555610efb565b82800160010185558215610efb579182015b82811115610efa578251825591602001919060010190610edf565b5b509050610f089190610f0c565b5090565b610f2e91905b80821115610f2a576000816000905550600101610f12565b5090565b905600a165627a7a7230582001b76e5369d63f1c52589ad5d2461ae0eafe2b8ed179e24da0ece9e5ba8c7c340029",
  "source": "pragma solidity ^0.4.23;\n\ncontract BlindVoting {\n \n  enum VotingStates {Init, Voting, Counting, Closed }\n  VotingStates public votingState;\n  string public version = \"0.0.1\";\n  int public from;\n  int public to;\n  address public owner;\n  string private intCalc;\n  \n  address[] participants;\n  mapping(address => string) public blindVotes;\n  mapping(int => int) votes;\n\n  // new contract -> new voting round -> voting on numbers\n  constructor(int _from, int _to){\n      from = _from;\n      to = _to;\n      owner = msg.sender;\n      votingState = VotingStates.Init;\n  }\n  \n  // EVENTS\n  event VotingStarted();\n  event CountingStarted();\n  event VotingClosed(int256 result); \n\n  // MODIFIERS\n  // modifier : can be executed only by the owner\n  modifier isOwner(){\n      require(msg.sender == owner);\n      _;\n  }\n\n  modifier inInit(){\n      require(votingState == VotingStates.Init);\n      _;\n  }\n\n  modifier inVoting(){\n      require(votingState == VotingStates.Voting);\n      _;\n  }\n\n  modifier inCounting(){\n      require(votingState == VotingStates.Counting);\n      _;\n  }\n\n  modifier inClosed(){\n      require(votingState == VotingStates.Closed);\n      _;\n  }\n\n  // STATE CHANGE FUNCTIONS\n  function startVotingRound() inInit() isOwner() {\n      votingState = VotingStates.Voting;\n      emit VotingStarted();\n  }\n\n  function startCountingRound() inVoting() isOwner() {\n      votingState = VotingStates.Counting;\n      emit CountingStarted();\n  }\n\n  function finishVoting() inCounting() isOwner() {\n      // counting votes\n      int result = -1;\n      int highestVoteNumber = -1;\n      for (int i = from; i <= to; i++){\n          if (votes[i] > highestVoteNumber){\n             highestVoteNumber = votes[i];\n             result = i;\n          }\n      }\n      // updating state\n      votingState = VotingStates.Closed;\n      emit VotingClosed(result);\n  }\n\n  // BASIC FUNCTIONS\n  // voting based on a sha256 value of the number and the salt\n  function vote(string blindVote) inVoting() public {\n    if (bytes(blindVotes[msg.sender]).length == 0){  \n          blindVotes[msg.sender] = blindVote;\n          participants.push(msg.sender);\n    }\n  }\n\n  // revealing the vote in the voting round\n  function revealVote(int vote, string salt) inCounting() public {\n      string blindVote = blindVotes[msg.sender];\n      if (compareStrings(blindVote,intCalc)) {\n          votes[vote] = votes[vote] + 1;\n      }     \n  }\n\nfunction compareStrings (string a, string b) view returns (bool){\n        bytes32  aa = stringToBytes32(a);\n        bytes32  bb = stringToBytes32(b);\n        bytes32 x = aa[1];\n        bytes32 z = bb[1];\n        \n       return x == z;\n }\n\nfunction stringToBytes32(string memory source) returns (bytes32 result) {\n    bytes memory tempEmptyStringTest = bytes(source);\n    if (tempEmptyStringTest.length == 0) {\n        return 0x0;\n    }\n\n    assembly {\n        result := mload(add(source, 32))\n    }\n}\n}\n",
  "sourcePath": "/home/super/Eth/blindvoting/contracts/BlindVoting.sol",
  "compiler": {
    "name": "solc",
    "version": "0.4.24+commit.e67f0147.Emscripten.clang"
  },
  "schemaVersion": "2.0.0",
  "updatedAt": "2018-11-14T21:04:36.669Z"
}