{
  "contractName": "BlindVoting",
  "abi": [
    {
      "constant": true,
      "inputs": [],
      "name": "to",
      "outputs": [
        {
          "name": "",
          "type": "uint256"
        }
      ],
      "payable": false,
      "stateMutability": "view",
      "type": "function"
    },
    {
      "constant": true,
      "inputs": [],
      "name": "version",
      "outputs": [
        {
          "name": "",
          "type": "string"
        }
      ],
      "payable": false,
      "stateMutability": "view",
      "type": "function"
    },
    {
      "constant": true,
      "inputs": [],
      "name": "owner",
      "outputs": [
        {
          "name": "",
          "type": "address"
        }
      ],
      "payable": false,
      "stateMutability": "view",
      "type": "function"
    },
    {
      "constant": true,
      "inputs": [],
      "name": "from",
      "outputs": [
        {
          "name": "",
          "type": "uint256"
        }
      ],
      "payable": false,
      "stateMutability": "view",
      "type": "function"
    },
    {
      "inputs": [
        {
          "name": "_from",
          "type": "uint256"
        },
        {
          "name": "_to",
          "type": "uint256"
        }
      ],
      "payable": false,
      "stateMutability": "nonpayable",
      "type": "constructor"
    }
  ],
  "bytecode": "0x60806040526040805190810160405280600581526020017f302e302e310000000000000000000000000000000000000000000000000000008152506000908051906020019061004f9291906100df565b5034801561005c57600080fd5b506040516040806104338339810180604052810190808051906020019092919080519060200190929190505050816001819055508060028190555033600360006101000a81548173ffffffffffffffffffffffffffffffffffffffff021916908373ffffffffffffffffffffffffffffffffffffffff1602179055505050610184565b828054600181600116156101000203166002900490600052602060002090601f016020900481019282601f1061012057805160ff191683800117855561014e565b8280016001018555821561014e579182015b8281111561014d578251825591602001919060010190610132565b5b50905061015b919061015f565b5090565b61018191905b8082111561017d576000816000905550600101610165565b5090565b90565b6102a0806101936000396000f300608060405260043610610062576000357c0100000000000000000000000000000000000000000000000000000000900463ffffffff168063131519811461006757806354fd4d50146100925780638da5cb5b14610122578063d5ce338914610179575b600080fd5b34801561007357600080fd5b5061007c6101a4565b6040518082815260200191505060405180910390f35b34801561009e57600080fd5b506100a76101aa565b6040518080602001828103825283818151815260200191508051906020019080838360005b838110156100e75780820151818401526020810190506100cc565b50505050905090810190601f1680156101145780820380516001836020036101000a031916815260200191505b509250505060405180910390f35b34801561012e57600080fd5b50610137610248565b604051808273ffffffffffffffffffffffffffffffffffffffff1673ffffffffffffffffffffffffffffffffffffffff16815260200191505060405180910390f35b34801561018557600080fd5b5061018e61026e565b6040518082815260200191505060405180910390f35b60025481565b60008054600181600116156101000203166002900480601f0160208091040260200160405190810160405280929190818152602001828054600181600116156101000203166002900480156102405780601f1061021557610100808354040283529160200191610240565b820191906000526020600020905b81548152906001019060200180831161022357829003601f168201915b505050505081565b600360009054906101000a900473ffffffffffffffffffffffffffffffffffffffff1681565b600154815600a165627a7a72305820d3211d27aba2d9b6f7985c3884584070cd9df9f27628c787a6950733d43eff250029",
  "source": "pragma solidity ^0.4.23;\n\ncontract BlindVoting {\n \n  string public version = \"0.0.1\";\n  uint public from;\n  uint public to;\n  address public owner;\n\n  // new contract -> new voting round -> voting on numbers\n  constructor(uint _from, uint _to){\n      from = _from;\n      to = _to;\n      owner = msg.sender;\n  }\n\n\n\n}",
  "sourcePath": "/home/super/Eth/blindvoting/contracts/BlindVoting.sol",
  "compiler": {
    "name": "solc",
    "version": "0.4.24+commit.e67f0147.Emscripten.clang"
  },
  "schemaVersion": "2.0.0",
  "updatedAt": "2018-11-14T14:48:52.989Z"
}